{
  "_format": "hh-sol-artifact-1",
  "contractName": "Skillerz",
  "sourceName": "contracts/Skillerz.sol",
  "abi": [
    {
      "inputs": [
        {
          "internalType": "string",
          "name": "_newContractURI",
          "type": "string"
        }
      ],
      "stateMutability": "nonpayable",
      "type": "constructor"
    },
    {
      "anonymous": false,
      "inputs": [
        {
          "indexed": true,
          "internalType": "address",
          "name": "owner",
          "type": "address"
        },
        {
          "indexed": true,
          "internalType": "address",
          "name": "approved",
          "type": "address"
        },
        {
          "indexed": true,
          "internalType": "uint256",
          "name": "tokenId",
          "type": "uint256"
        }
      ],
      "name": "Approval",
      "type": "event"
    },
    {
      "anonymous": false,
      "inputs": [
        {
          "indexed": true,
          "internalType": "address",
          "name": "owner",
          "type": "address"
        },
        {
          "indexed": true,
          "internalType": "address",
          "name": "operator",
          "type": "address"
        },
        {
          "indexed": false,
          "internalType": "bool",
          "name": "approved",
          "type": "bool"
        }
      ],
      "name": "ApprovalForAll",
      "type": "event"
    },
    {
      "anonymous": false,
      "inputs": [
        {
          "indexed": true,
          "internalType": "address",
          "name": "previousOwner",
          "type": "address"
        },
        {
          "indexed": true,
          "internalType": "address",
          "name": "newOwner",
          "type": "address"
        }
      ],
      "name": "OwnershipTransferred",
      "type": "event"
    },
    {
      "anonymous": false,
      "inputs": [
        {
          "indexed": true,
          "internalType": "address",
          "name": "from",
          "type": "address"
        },
        {
          "indexed": true,
          "internalType": "address",
          "name": "to",
          "type": "address"
        },
        {
          "indexed": true,
          "internalType": "uint256",
          "name": "tokenId",
          "type": "uint256"
        }
      ],
      "name": "Transfer",
      "type": "event"
    },
    {
      "inputs": [
        {
          "internalType": "uint256",
          "name": "",
          "type": "uint256"
        }
      ],
      "name": "CollectionsDict",
      "outputs": [
        {
          "internalType": "bool",
          "name": "active",
          "type": "bool"
        },
        {
          "internalType": "uint256",
          "name": "maxSupply",
          "type": "uint256"
        },
        {
          "internalType": "string",
          "name": "name",
          "type": "string"
        },
        {
          "internalType": "uint256",
          "name": "counter",
          "type": "uint256"
        },
        {
          "internalType": "string",
          "name": "baseURI",
          "type": "string"
        },
        {
          "internalType": "uint256",
          "name": "reserved",
          "type": "uint256"
        },
        {
          "internalType": "uint256",
          "name": "reservedCounter",
          "type": "uint256"
        },
        {
          "internalType": "uint256",
          "name": "idCounter",
          "type": "uint256"
        }
      ],
      "stateMutability": "view",
      "type": "function"
    },
    {
      "inputs": [
        {
          "internalType": "address[]",
          "name": "_list",
          "type": "address[]"
        },
        {
          "internalType": "uint256",
          "name": "_collectionID",
          "type": "uint256"
        }
      ],
      "name": "airdopNFT",
      "outputs": [],
      "stateMutability": "nonpayable",
      "type": "function"
    },
    {
      "inputs": [
        {
          "internalType": "address",
          "name": "to",
          "type": "address"
        },
        {
          "internalType": "uint256",
          "name": "tokenId",
          "type": "uint256"
        }
      ],
      "name": "approve",
      "outputs": [],
      "stateMutability": "nonpayable",
      "type": "function"
    },
    {
      "inputs": [
        {
          "internalType": "address",
          "name": "owner",
          "type": "address"
        }
      ],
      "name": "balanceOf",
      "outputs": [
        {
          "internalType": "uint256",
          "name": "",
          "type": "uint256"
        }
      ],
      "stateMutability": "view",
      "type": "function"
    },
    {
      "inputs": [],
      "name": "baseExtension",
      "outputs": [
        {
          "internalType": "string",
          "name": "",
          "type": "string"
        }
      ],
      "stateMutability": "view",
      "type": "function"
    },
    {
      "inputs": [
        {
          "internalType": "address[]",
          "name": "accounts",
          "type": "address[]"
        }
      ],
      "name": "bulkSetWhitelist",
      "outputs": [
        {
          "internalType": "uint256",
          "name": "",
          "type": "uint256"
        }
      ],
      "stateMutability": "nonpayable",
      "type": "function"
    },
    {
      "inputs": [],
      "name": "contractURI",
      "outputs": [
        {
          "internalType": "string",
          "name": "",
          "type": "string"
        }
      ],
      "stateMutability": "view",
      "type": "function"
    },
    {
      "inputs": [
        {
          "internalType": "uint256",
          "name": "tokenId",
          "type": "uint256"
        }
      ],
      "name": "getApproved",
      "outputs": [
        {
          "internalType": "address",
          "name": "",
          "type": "address"
        }
      ],
      "stateMutability": "view",
      "type": "function"
    },
    {
      "inputs": [
        {
          "internalType": "address",
          "name": "_owner",
          "type": "address"
        }
      ],
      "name": "getNFTContract",
      "outputs": [
        {
          "internalType": "uint256[]",
          "name": "",
          "type": "uint256[]"
        }
      ],
      "stateMutability": "view",
      "type": "function"
    },
    {
      "inputs": [
        {
          "internalType": "address",
          "name": "_address",
          "type": "address"
        }
      ],
      "name": "getWhitelistClaim",
      "outputs": [
        {
          "internalType": "uint256",
          "name": "",
          "type": "uint256"
        }
      ],
      "stateMutability": "view",
      "type": "function"
    },
    {
      "inputs": [
        {
          "internalType": "address",
          "name": "owner",
          "type": "address"
        },
        {
          "internalType": "address",
          "name": "operator",
          "type": "address"
        }
      ],
      "name": "isApprovedForAll",
      "outputs": [
        {
          "internalType": "bool",
          "name": "",
          "type": "bool"
        }
      ],
      "stateMutability": "view",
      "type": "function"
    },
    {
      "inputs": [
        {
          "internalType": "address",
          "name": "_address",
          "type": "address"
        }
      ],
      "name": "isWhitelisted",
      "outputs": [
        {
          "internalType": "bool",
          "name": "",
          "type": "bool"
        }
      ],
      "stateMutability": "view",
      "type": "function"
    },
    {
      "inputs": [],
      "name": "maxMintAmount",
      "outputs": [
        {
          "internalType": "uint256",
          "name": "",
          "type": "uint256"
        }
      ],
      "stateMutability": "view",
      "type": "function"
    },
    {
      "inputs": [],
      "name": "maxSupply",
      "outputs": [
        {
          "internalType": "uint256",
          "name": "",
          "type": "uint256"
        }
      ],
      "stateMutability": "view",
      "type": "function"
    },
    {
      "inputs": [],
      "name": "maxWhitelistAmount",
      "outputs": [
        {
          "internalType": "uint256",
          "name": "",
          "type": "uint256"
        }
      ],
      "stateMutability": "view",
      "type": "function"
    },
    {
      "inputs": [
        {
          "internalType": "address",
          "name": "_to",
          "type": "address"
        },
        {
          "internalType": "uint256",
          "name": "_mintAmount",
          "type": "uint256"
        },
        {
          "internalType": "uint256",
          "name": "_collectionID",
          "type": "uint256"
        }
      ],
      "name": "mintNFT",
      "outputs": [],
      "stateMutability": "payable",
      "type": "function"
    },
    {
      "inputs": [
        {
          "internalType": "address",
          "name": "_to",
          "type": "address"
        },
        {
          "internalType": "uint256",
          "name": "_mintAmount",
          "type": "uint256"
        },
        {
          "internalType": "uint256",
          "name": "_collectionID",
          "type": "uint256"
        }
      ],
      "name": "mintReserved",
      "outputs": [],
      "stateMutability": "nonpayable",
      "type": "function"
    },
    {
      "inputs": [
        {
          "internalType": "address",
          "name": "_to",
          "type": "address"
        },
        {
          "internalType": "uint256",
          "name": "_mintAmount",
          "type": "uint256"
        },
        {
          "internalType": "uint256",
          "name": "_collectionID",
          "type": "uint256"
        }
      ],
      "name": "mintWhitelistNFT",
      "outputs": [],
      "stateMutability": "payable",
      "type": "function"
    },
    {
      "inputs": [],
      "name": "mintingPrice",
      "outputs": [
        {
          "internalType": "uint256",
          "name": "",
          "type": "uint256"
        }
      ],
      "stateMutability": "view",
      "type": "function"
    },
    {
      "inputs": [],
      "name": "name",
      "outputs": [
        {
          "internalType": "string",
          "name": "",
          "type": "string"
        }
      ],
      "stateMutability": "view",
      "type": "function"
    },
    {
      "inputs": [],
      "name": "owner",
      "outputs": [
        {
          "internalType": "address",
          "name": "",
          "type": "address"
        }
      ],
      "stateMutability": "view",
      "type": "function"
    },
    {
      "inputs": [
        {
          "internalType": "uint256",
          "name": "tokenId",
          "type": "uint256"
        }
      ],
      "name": "ownerOf",
      "outputs": [
        {
          "internalType": "address",
          "name": "",
          "type": "address"
        }
      ],
      "stateMutability": "view",
      "type": "function"
    },
    {
      "inputs": [],
      "name": "paused",
      "outputs": [
        {
          "internalType": "bool",
          "name": "",
          "type": "bool"
        }
      ],
      "stateMutability": "view",
      "type": "function"
    },
    {
      "inputs": [],
      "name": "renounceOwnership",
      "outputs": [],
      "stateMutability": "nonpayable",
      "type": "function"
    },
    {
      "inputs": [],
      "name": "revealJson",
      "outputs": [
        {
          "internalType": "string",
          "name": "",
          "type": "string"
        }
      ],
      "stateMutability": "view",
      "type": "function"
    },
    {
      "inputs": [
        {
          "internalType": "address",
          "name": "from",
          "type": "address"
        },
        {
          "internalType": "address",
          "name": "to",
          "type": "address"
        },
        {
          "internalType": "uint256",
          "name": "tokenId",
          "type": "uint256"
        }
      ],
      "name": "safeTransferFrom",
      "outputs": [],
      "stateMutability": "nonpayable",
      "type": "function"
    },
    {
      "inputs": [
        {
          "internalType": "address",
          "name": "from",
          "type": "address"
        },
        {
          "internalType": "address",
          "name": "to",
          "type": "address"
        },
        {
          "internalType": "uint256",
          "name": "tokenId",
          "type": "uint256"
        },
        {
          "internalType": "bytes",
          "name": "_data",
          "type": "bytes"
        }
      ],
      "name": "safeTransferFrom",
      "outputs": [],
      "stateMutability": "nonpayable",
      "type": "function"
    },
    {
      "inputs": [
        {
          "internalType": "address",
          "name": "operator",
          "type": "address"
        },
        {
          "internalType": "bool",
          "name": "approved",
          "type": "bool"
        }
      ],
      "name": "setApprovalForAll",
      "outputs": [],
      "stateMutability": "nonpayable",
      "type": "function"
    },
    {
      "inputs": [
        {
          "internalType": "string",
          "name": "_newBaseExtension",
          "type": "string"
        }
      ],
      "name": "setBaseExtension",
      "outputs": [],
      "stateMutability": "nonpayable",
      "type": "function"
    },
    {
      "inputs": [
        {
          "internalType": "string",
          "name": "_newBaseURI",
          "type": "string"
        },
        {
          "internalType": "uint256",
          "name": "_collectionID",
          "type": "uint256"
        }
      ],
      "name": "setBaseURI",
      "outputs": [],
      "stateMutability": "nonpayable",
      "type": "function"
    },
    {
      "inputs": [
        {
          "internalType": "string",
          "name": "_newContractURI",
          "type": "string"
        }
      ],
      "name": "setContractURI",
      "outputs": [],
      "stateMutability": "nonpayable",
      "type": "function"
    },
    {
      "inputs": [
        {
          "internalType": "uint256",
          "name": "_newmaxMintAmount",
          "type": "uint256"
        }
      ],
      "name": "setmaxMintAmount",
      "outputs": [],
      "stateMutability": "nonpayable",
      "type": "function"
    },
    {
      "inputs": [
        {
          "internalType": "uint256",
          "name": "_newmaxMintAmount",
          "type": "uint256"
        }
      ],
      "name": "setmaxWhitelistAmount",
      "outputs": [],
      "stateMutability": "nonpayable",
      "type": "function"
    },
    {
      "inputs": [
        {
          "internalType": "uint256",
          "name": "_newPrice",
          "type": "uint256"
        }
      ],
      "name": "setmintingPrice",
      "outputs": [],
      "stateMutability": "nonpayable",
      "type": "function"
    },
    {
      "inputs": [
        {
          "internalType": "uint256",
          "name": "_newPrice",
          "type": "uint256"
        }
      ],
      "name": "setwhitelistPrice",
      "outputs": [],
      "stateMutability": "nonpayable",
      "type": "function"
    },
    {
      "inputs": [
        {
          "internalType": "bytes4",
          "name": "interfaceId",
          "type": "bytes4"
        }
      ],
      "name": "supportsInterface",
      "outputs": [
        {
          "internalType": "bool",
          "name": "",
          "type": "bool"
        }
      ],
      "stateMutability": "view",
      "type": "function"
    },
    {
      "inputs": [
        {
          "internalType": "uint256",
          "name": "_collectionID",
          "type": "uint256"
        }
      ],
      "name": "switchMintingActive",
      "outputs": [],
      "stateMutability": "nonpayable",
      "type": "function"
    },
    {
      "inputs": [],
      "name": "switchPaused",
      "outputs": [],
      "stateMutability": "nonpayable",
      "type": "function"
    },
    {
      "inputs": [],
      "name": "switchWhitelistActive",
      "outputs": [],
      "stateMutability": "nonpayable",
      "type": "function"
    },
    {
      "inputs": [],
      "name": "symbol",
      "outputs": [
        {
          "internalType": "string",
          "name": "",
          "type": "string"
        }
      ],
      "stateMutability": "view",
      "type": "function"
    },
    {
      "inputs": [
        {
          "internalType": "uint256",
          "name": "index",
          "type": "uint256"
        }
      ],
      "name": "tokenByIndex",
      "outputs": [
        {
          "internalType": "uint256",
          "name": "",
          "type": "uint256"
        }
      ],
      "stateMutability": "view",
      "type": "function"
    },
    {
      "inputs": [],
      "name": "tokenCounter",
      "outputs": [
        {
          "internalType": "uint256",
          "name": "",
          "type": "uint256"
        }
      ],
      "stateMutability": "view",
      "type": "function"
    },
    {
      "inputs": [
        {
          "internalType": "address",
          "name": "owner",
          "type": "address"
        },
        {
          "internalType": "uint256",
          "name": "index",
          "type": "uint256"
        }
      ],
      "name": "tokenOfOwnerByIndex",
      "outputs": [
        {
          "internalType": "uint256",
          "name": "",
          "type": "uint256"
        }
      ],
      "stateMutability": "view",
      "type": "function"
    },
    {
      "inputs": [
        {
          "internalType": "uint256",
          "name": "tokenId",
          "type": "uint256"
        }
      ],
      "name": "tokenURI",
      "outputs": [
        {
          "internalType": "string",
          "name": "",
          "type": "string"
        }
      ],
      "stateMutability": "view",
      "type": "function"
    },
    {
      "inputs": [],
      "name": "totalSupply",
      "outputs": [
        {
          "internalType": "uint256",
          "name": "",
          "type": "uint256"
        }
      ],
      "stateMutability": "view",
      "type": "function"
    },
    {
      "inputs": [
        {
          "internalType": "address",
          "name": "from",
          "type": "address"
        },
        {
          "internalType": "address",
          "name": "to",
          "type": "address"
        },
        {
          "internalType": "uint256",
          "name": "tokenId",
          "type": "uint256"
        }
      ],
      "name": "transferFrom",
      "outputs": [],
      "stateMutability": "nonpayable",
      "type": "function"
    },
    {
      "inputs": [
        {
          "internalType": "address",
          "name": "newOwner",
          "type": "address"
        }
      ],
      "name": "transferOwnership",
      "outputs": [],
      "stateMutability": "nonpayable",
      "type": "function"
    },
    {
      "inputs": [
        {
          "internalType": "uint256",
          "name": "_newReserved",
          "type": "uint256"
        },
        {
          "internalType": "uint256",
          "name": "_collectionID",
          "type": "uint256"
        }
      ],
      "name": "updateReserved",
      "outputs": [],
      "stateMutability": "nonpayable",
      "type": "function"
    },
    {
      "inputs": [
        {
          "internalType": "address",
          "name": "",
          "type": "address"
        }
      ],
      "name": "whitelist",
      "outputs": [
        {
          "internalType": "bool",
          "name": "",
          "type": "bool"
        }
      ],
      "stateMutability": "view",
      "type": "function"
    },
    {
      "inputs": [],
      "name": "whitelistActive",
      "outputs": [
        {
          "internalType": "bool",
          "name": "",
          "type": "bool"
        }
      ],
      "stateMutability": "view",
      "type": "function"
    },
    {
      "inputs": [],
      "name": "whitelistPrice",
      "outputs": [
        {
          "internalType": "uint256",
          "name": "",
          "type": "uint256"
        }
      ],
      "stateMutability": "view",
      "type": "function"
    },
    {
      "inputs": [],
      "name": "whitelistSize",
      "outputs": [
        {
          "internalType": "uint256",
          "name": "",
          "type": "uint256"
        }
      ],
      "stateMutability": "view",
      "type": "function"
    },
    {
      "inputs": [],
      "name": "withdraw",
      "outputs": [],
      "stateMutability": "payable",
      "type": "function"
    }
  ],
  "bytecode": "0x60c06040526005608081905264173539b7b760d91b60a09081526200002891600b919062002654565b50662386f26fc100006010819055601155600a6012556117706013556015805460ff19169055600360165560006017553480156200006557600080fd5b506040516200607d3803806200607d8339810160408190526200008891620026fa565b604080518082018252600881526729b5b4b63632b93d60c11b60208083019182528351808501909452600384526229a5ad60e91b908401528151919291620000d39160009162002654565b508051620000e990600190602084019062002654565b50505062000106620001006200013260201b60201c565b62000136565b6000600c5580516200012090600e90602084019062002654565b506200012b62000188565b5062002829565b3390565b600a80546001600160a01b038381166001600160a01b0319831681179093556040519116919082907f8be0079c531659141344cd1fd0a4f28419497f9722a3daafe3b4186f6b6457e090600090a35050565b7f4f26c3876aa9f4b92579780beea1161a61f87ebf1ec6ee865b299e447ecba99c805460ff1916905560007f4f26c3876aa9f4b92579780beea1161a61f87ebf1ec6ee865b299e447ecba99d81905560408051808201909152601681527f4e6f7420612076616c696420636f6c6c656374696f6e00000000000000000000602082810191825292805260149092525162000244917f4f26c3876aa9f4b92579780beea1161a61f87ebf1ec6ee865b299e447ecba99e9162002654565b5060007f4f26c3876aa9f4b92579780beea1161a61f87ebf1ec6ee865b299e447ecba99f8190556040805160208181019283905283825292805260149092529051620002b2917f4f26c3876aa9f4b92579780beea1161a61f87ebf1ec6ee865b299e447ecba9a09162002654565b5060007f4f26c3876aa9f4b92579780beea1161a61f87ebf1ec6ee865b299e447ecba9a18190557f4f26c3876aa9f4b92579780beea1161a61f87ebf1ec6ee865b299e447ecba9a28190557f4f26c3876aa9f4b92579780beea1161a61f87ebf1ec6ee865b299e447ecba9a38190557fb6c61a840592cc84133e4b25bd509abf4659307c57b160799b38490a5aa48f2c805460ff1916905561012c7fb6c61a840592cc84133e4b25bd509abf4659307c57b160799b38490a5aa48f2d5560408051808201909152601081526f22b6b830ba343c9029b5b4b63632b93d60811b60208281019182526001909352601490925251620003d1917fb6c61a840592cc84133e4b25bd509abf4659307c57b160799b38490a5aa48f2e9162002654565b5060007fb6c61a840592cc84133e4b25bd509abf4659307c57b160799b38490a5aa48f2f81905560408051808201909152601881527f68747470733a2f2f636f6c6c656374696f6e312e636f6d2f00000000000000006020828101918252600190935260149092525162000467917fb6c61a840592cc84133e4b25bd509abf4659307c57b160799b38490a5aa48f309162002654565b50600f7fb6c61a840592cc84133e4b25bd509abf4659307c57b160799b38490a5aa48f315560007fb6c61a840592cc84133e4b25bd509abf4659307c57b160799b38490a5aa48f328190557fb6c61a840592cc84133e4b25bd509abf4659307c57b160799b38490a5aa48f338190557fa1930aa930426c54c34daad2b9ada7c5d0ef0c96078a3c5bb79f6fa6602c4a7a805460ff1916905561012c7fa1930aa930426c54c34daad2b9ada7c5d0ef0c96078a3c5bb79f6fa6602c4a7b5560408051808201909152601681527f436f6d6d756e69636174696f6e20536b696c6c65727a000000000000000000006020828101918252600290935260149092525162000593917fa1930aa930426c54c34daad2b9ada7c5d0ef0c96078a3c5bb79f6fa6602c4a7c9162002654565b5060007fa1930aa930426c54c34daad2b9ada7c5d0ef0c96078a3c5bb79f6fa6602c4a7d81905560408051808201909152601881527f68747470733a2f2f636f6c6c656374696f6e322e636f6d2f00000000000000006020828101918252600290935260149092525162000629917fa1930aa930426c54c34daad2b9ada7c5d0ef0c96078a3c5bb79f6fa6602c4a7e9162002654565b50600f7fa1930aa930426c54c34daad2b9ada7c5d0ef0c96078a3c5bb79f6fa6602c4a7f5560007fa1930aa930426c54c34daad2b9ada7c5d0ef0c96078a3c5bb79f6fa6602c4a8081905561012c7fa1930aa930426c54c34daad2b9ada7c5d0ef0c96078a3c5bb79f6fa6602c4a818190557f63d87a887046e0430be80fdeb014107d7198c879cbf2cddf39a6df195c86cb38805460ff191690557f63d87a887046e0430be80fdeb014107d7198c879cbf2cddf39a6df195c86cb395560408051808201909152601681527f4275696c64204e6574776f726b20536b696c6c65727a000000000000000000006020828101918252600390935260149092525162000755917f63d87a887046e0430be80fdeb014107d7198c879cbf2cddf39a6df195c86cb3a9162002654565b5060007f63d87a887046e0430be80fdeb014107d7198c879cbf2cddf39a6df195c86cb3b81905560408051808201909152601881527f68747470733a2f2f636f6c6c656374696f6e332e636f6d2f000000000000000060208281019182526003909352601490925251620007eb917f63d87a887046e0430be80fdeb014107d7198c879cbf2cddf39a6df195c86cb3c9162002654565b50600f7f63d87a887046e0430be80fdeb014107d7198c879cbf2cddf39a6df195c86cb3d5560007f63d87a887046e0430be80fdeb014107d7198c879cbf2cddf39a6df195c86cb3e8190556102587f63d87a887046e0430be80fdeb014107d7198c879cbf2cddf39a6df195c86cb3f557f52102136546d97ed3f65ec1070a32935d3048ea12f310d29c378dc9d6555c0d6805460ff1916905561012c7f52102136546d97ed3f65ec1070a32935d3048ea12f310d29c378dc9d6555c0d75560408051808201909152601a81527f437269746963616c205468696e6b696e6720536b696c6c65727a0000000000006020828101918252600490935260149092525162000918917f52102136546d97ed3f65ec1070a32935d3048ea12f310d29c378dc9d6555c0d89162002654565b5060007f52102136546d97ed3f65ec1070a32935d3048ea12f310d29c378dc9d6555c0d981905560408051808201909152601881527f68747470733a2f2f636f6c6c656374696f6e342e636f6d2f000000000000000060208281019182526004909352601490925251620009ae917f52102136546d97ed3f65ec1070a32935d3048ea12f310d29c378dc9d6555c0da9162002654565b50600f7f52102136546d97ed3f65ec1070a32935d3048ea12f310d29c378dc9d6555c0db5560007f52102136546d97ed3f65ec1070a32935d3048ea12f310d29c378dc9d6555c0dc8190556103847f52102136546d97ed3f65ec1070a32935d3048ea12f310d29c378dc9d6555c0dd557f116126bec5aaa49b347e966c49378cf0c441de9121e306ea3d824584a9615aa2805460ff1916905561012c7f116126bec5aaa49b347e966c49378cf0c441de9121e306ea3d824584a9615aa35560408051808201909152601a81527f427573696e657373204d696e6473657420536b696c6c65727a200000000000006020828101918252600590935260149092525162000adb917f116126bec5aaa49b347e966c49378cf0c441de9121e306ea3d824584a9615aa49162002654565b5060007f116126bec5aaa49b347e966c49378cf0c441de9121e306ea3d824584a9615aa581905560408051808201909152601881527f68747470733a2f2f636f6c6c656374696f6e352e636f6d2f00000000000000006020828101918252600590935260149092525162000b71917f116126bec5aaa49b347e966c49378cf0c441de9121e306ea3d824584a9615aa69162002654565b50600f7f116126bec5aaa49b347e966c49378cf0c441de9121e306ea3d824584a9615aa75560007f116126bec5aaa49b347e966c49378cf0c441de9121e306ea3d824584a9615aa88190556104b07f116126bec5aaa49b347e966c49378cf0c441de9121e306ea3d824584a9615aa9557fe1f6b6a5fb7e47dad87547d4b0671e7e995a1dae22fbe5b3b5d10e2a77ed7aff805460ff1916905561012c7fe1f6b6a5fb7e47dad87547d4b0671e7e995a1dae22fbe5b3b5d10e2a77ed7b00556040805180820190915260148082527f576f726b2045746869637320536b696c6c65727a0000000000000000000000006020838101918252600690945292525162000c9c917fe1f6b6a5fb7e47dad87547d4b0671e7e995a1dae22fbe5b3b5d10e2a77ed7b019162002654565b5060007fe1f6b6a5fb7e47dad87547d4b0671e7e995a1dae22fbe5b3b5d10e2a77ed7b0281905560408051808201909152601881527f68747470733a2f2f636f6c6c656374696f6e362e636f6d2f00000000000000006020828101918252600690935260149092525162000d32917fe1f6b6a5fb7e47dad87547d4b0671e7e995a1dae22fbe5b3b5d10e2a77ed7b039162002654565b50600f7fe1f6b6a5fb7e47dad87547d4b0671e7e995a1dae22fbe5b3b5d10e2a77ed7b045560007fe1f6b6a5fb7e47dad87547d4b0671e7e995a1dae22fbe5b3b5d10e2a77ed7b058190556105dc7fe1f6b6a5fb7e47dad87547d4b0671e7e995a1dae22fbe5b3b5d10e2a77ed7b06557f904977a779b22381a36c6463d4166ef55ee8cb3392c83093cb1750f1a00c9d94805460ff1916905561012c7f904977a779b22381a36c6463d4166ef55ee8cb3392c83093cb1750f1a00c9d955560408051808201909152601881527f436c69656e74204f7269656e74656420536b696c6c65727a00000000000000006020828101918252600790935260149092525162000e5f917f904977a779b22381a36c6463d4166ef55ee8cb3392c83093cb1750f1a00c9d969162002654565b5060007f904977a779b22381a36c6463d4166ef55ee8cb3392c83093cb1750f1a00c9d9781905560408051808201909152601881527f68747470733a2f2f636f6c6c656374696f6e372e636f6d2f00000000000000006020828101918252600790935260149092525162000ef5917f904977a779b22381a36c6463d4166ef55ee8cb3392c83093cb1750f1a00c9d989162002654565b50600f7f904977a779b22381a36c6463d4166ef55ee8cb3392c83093cb1750f1a00c9d995560007f904977a779b22381a36c6463d4166ef55ee8cb3392c83093cb1750f1a00c9d9a8190556107087f904977a779b22381a36c6463d4166ef55ee8cb3392c83093cb1750f1a00c9d9b557f125fdacc24f94fb724c0c32a4eab75d67204551eb2448dadf875d535a7449726805460ff1916905561012c7f125fdacc24f94fb724c0c32a4eab75d67204551eb2448dadf875d535a74497275560408051808201909152601b81527f4d616e616765204672757374726174696f6e20536b696c6c65727a00000000006020828101918252600890935260149092525162001022917f125fdacc24f94fb724c0c32a4eab75d67204551eb2448dadf875d535a74497289162002654565b5060007f125fdacc24f94fb724c0c32a4eab75d67204551eb2448dadf875d535a744972981905560408051808201909152601881527f68747470733a2f2f636f6c6c656374696f6e382e636f6d2f000000000000000060208281019182526008909352601490925251620010b8917f125fdacc24f94fb724c0c32a4eab75d67204551eb2448dadf875d535a744972a9162002654565b50600f7f125fdacc24f94fb724c0c32a4eab75d67204551eb2448dadf875d535a744972b5560007f125fdacc24f94fb724c0c32a4eab75d67204551eb2448dadf875d535a744972c8190556108347f125fdacc24f94fb724c0c32a4eab75d67204551eb2448dadf875d535a744972d557ff517404d914a19d455440d961937db67771e4bfb0b4293ff6fd7c75855208c19805460ff1916905561012c7ff517404d914a19d455440d961937db67771e4bfb0b4293ff6fd7c75855208c1a5560408051808201909152601881527f54696d65204d616e6167656d656e7420536b696c6c65727a000000000000000060208281019182526009909352601490925251620011e5917ff517404d914a19d455440d961937db67771e4bfb0b4293ff6fd7c75855208c1b9162002654565b5060007ff517404d914a19d455440d961937db67771e4bfb0b4293ff6fd7c75855208c1c81905560408051808201909152601881527f68747470733a2f2f636f6c6c656374696f6e392e636f6d2f0000000000000000602082810191825260099093526014909252516200127b917ff517404d914a19d455440d961937db67771e4bfb0b4293ff6fd7c75855208c1d9162002654565b50600f7ff517404d914a19d455440d961937db67771e4bfb0b4293ff6fd7c75855208c1e5560007ff517404d914a19d455440d961937db67771e4bfb0b4293ff6fd7c75855208c1f8190556109607ff517404d914a19d455440d961937db67771e4bfb0b4293ff6fd7c75855208c20557f65f9512343925c57130fd77667cb42fc83560c400ede0c87f3de7c6c27cf09a6805460ff1916905561012c7f65f9512343925c57130fd77667cb42fc83560c400ede0c87f3de7c6c27cf09a75560408051808201909152601781527f496e7370697265204f746865727320536b696c6c65727a0000000000000000006020828101918252600a909352601490925251620013a8917f65f9512343925c57130fd77667cb42fc83560c400ede0c87f3de7c6c27cf09a89162002654565b5060007f65f9512343925c57130fd77667cb42fc83560c400ede0c87f3de7c6c27cf09a981905560408051808201909152601981527f68747470733a2f2f636f6c6c656374696f6e31302e636f6d2f000000000000006020828101918252600a9093526014909252516200143e917f65f9512343925c57130fd77667cb42fc83560c400ede0c87f3de7c6c27cf09aa9162002654565b50600f7f65f9512343925c57130fd77667cb42fc83560c400ede0c87f3de7c6c27cf09ab5560007f65f9512343925c57130fd77667cb42fc83560c400ede0c87f3de7c6c27cf09ac819055610a8c7f65f9512343925c57130fd77667cb42fc83560c400ede0c87f3de7c6c27cf09ad557fdabe84bb17a8774762b6726edd7eb728da1732e1ab123804fc9345b7300e0a2e805460ff1916905561012c7fdabe84bb17a8774762b6726edd7eb728da1732e1ab123804fc9345b7300e0a2f5560408051808201909152601d81527f417474656e74696f6e20546f2044657461696c7320536b696c6c65727a0000006020828101918252600b9093526014909252516200156b917fdabe84bb17a8774762b6726edd7eb728da1732e1ab123804fc9345b7300e0a309162002654565b5060007fdabe84bb17a8774762b6726edd7eb728da1732e1ab123804fc9345b7300e0a3181905560408051808201909152601981527f68747470733a2f2f636f6c6c656374696f6e31312e636f6d2f000000000000006020828101918252600b90935260149092525162001601917fdabe84bb17a8774762b6726edd7eb728da1732e1ab123804fc9345b7300e0a329162002654565b50600f7fdabe84bb17a8774762b6726edd7eb728da1732e1ab123804fc9345b7300e0a335560007fdabe84bb17a8774762b6726edd7eb728da1732e1ab123804fc9345b7300e0a34819055610bb87fdabe84bb17a8774762b6726edd7eb728da1732e1ab123804fc9345b7300e0a35557f3a61d736b87fed11cf463325a3a6df55734cfb04ef5868e0125df26f708fa9c5805460ff1916905561012c7f3a61d736b87fed11cf463325a3a6df55734cfb04ef5868e0125df26f708fa9c65560408051808201909152601c81527f44656c69766572204f6e2050726f6d6973657320536b696c6c65727a000000006020828101918252600c9093526014909252516200172e917f3a61d736b87fed11cf463325a3a6df55734cfb04ef5868e0125df26f708fa9c79162002654565b5060007f3a61d736b87fed11cf463325a3a6df55734cfb04ef5868e0125df26f708fa9c881905560408051808201909152601981527f68747470733a2f2f636f6c6c656374696f6e31322e636f6d2f000000000000006020828101918252600c909352601490925251620017c4917f3a61d736b87fed11cf463325a3a6df55734cfb04ef5868e0125df26f708fa9c99162002654565b50600f7f3a61d736b87fed11cf463325a3a6df55734cfb04ef5868e0125df26f708fa9ca5560007f3a61d736b87fed11cf463325a3a6df55734cfb04ef5868e0125df26f708fa9cb819055610ce47f3a61d736b87fed11cf463325a3a6df55734cfb04ef5868e0125df26f708fa9cc557f7f52294eda93879c98196ba8dfee8e39c94fda44d3e2327cc2c6d0806e39c2cf805460ff1916905561012c7f7f52294eda93879c98196ba8dfee8e39c94fda44d3e2327cc2c6d0806e39c2d05560408051808201909152601781527f456167657220546f204c6561726e20536b696c6c65727a0000000000000000006020828101918252600d909352601490925251620018f1917f7f52294eda93879c98196ba8dfee8e39c94fda44d3e2327cc2c6d0806e39c2d19162002654565b5060007f7f52294eda93879c98196ba8dfee8e39c94fda44d3e2327cc2c6d0806e39c2d281905560408051808201909152601981527f68747470733a2f2f636f6c6c656374696f6e31332e636f6d2f000000000000006020828101918252600d90935260149092525162001987917f7f52294eda93879c98196ba8dfee8e39c94fda44d3e2327cc2c6d0806e39c2d39162002654565b50600f7f7f52294eda93879c98196ba8dfee8e39c94fda44d3e2327cc2c6d0806e39c2d45560007f7f52294eda93879c98196ba8dfee8e39c94fda44d3e2327cc2c6d0806e39c2d5819055610e107f7f52294eda93879c98196ba8dfee8e39c94fda44d3e2327cc2c6d0806e39c2d6557fb429c61f7b03e67aad73431d2c25f054ce4133be1680124f402536c7d48c1eed805460ff1916905561012c7fb429c61f7b03e67aad73431d2c25f054ce4133be1680124f402536c7d48c1eee5560408051808201909152601381527f456e746875736961736d20536b696c6c65727a000000000000000000000000006020828101918252600e90935260149092525162001ab4917fb429c61f7b03e67aad73431d2c25f054ce4133be1680124f402536c7d48c1eef9162002654565b5060007fb429c61f7b03e67aad73431d2c25f054ce4133be1680124f402536c7d48c1ef081905560408051808201909152601981527f68747470733a2f2f636f6c6c656374696f6e31342e636f6d2f000000000000006020828101918252600e90935260149092525162001b4a917fb429c61f7b03e67aad73431d2c25f054ce4133be1680124f402536c7d48c1ef19162002654565b50600f7fb429c61f7b03e67aad73431d2c25f054ce4133be1680124f402536c7d48c1ef281905560007fb429c61f7b03e67aad73431d2c25f054ce4133be1680124f402536c7d48c1ef3819055610f3c7fb429c61f7b03e67aad73431d2c25f054ce4133be1680124f402536c7d48c1ef4557f2f4111c4623d442ba4f89af8583239431566f63c7c6e0af548a5302cca50a54f805460ff1916905561012c7f2f4111c4623d442ba4f89af8583239431566f63c7c6e0af548a5302cca50a5505560408051808201909152601381527f507261676d617469736d20536b696c6c65727a000000000000000000000000006020828101918252939092526014909252905162001c79917f2f4111c4623d442ba4f89af8583239431566f63c7c6e0af548a5302cca50a5519162002654565b5060007f2f4111c4623d442ba4f89af8583239431566f63c7c6e0af548a5302cca50a55281905560408051808201909152601981527f68747470733a2f2f636f6c6c656374696f6e31352e636f6d2f000000000000006020828101918252600f90935260149092525162001d0f917f2f4111c4623d442ba4f89af8583239431566f63c7c6e0af548a5302cca50a5539162002654565b50600f7f2f4111c4623d442ba4f89af8583239431566f63c7c6e0af548a5302cca50a5545560007f2f4111c4623d442ba4f89af8583239431566f63c7c6e0af548a5302cca50a5558190556110687f2f4111c4623d442ba4f89af8583239431566f63c7c6e0af548a5302cca50a556557fb9aa073911e1c5f8bd8c04c7214fb2acd89aeb4180f5a23dea34f2fa40cb91d2805460ff1916905561012c7fb9aa073911e1c5f8bd8c04c7214fb2acd89aeb4180f5a23dea34f2fa40cb91d35560408051808201909152601981527f416374697665204c697374656e696e6720536b696c6c65727a000000000000006020828101918252601090935260149092525162001e3c917fb9aa073911e1c5f8bd8c04c7214fb2acd89aeb4180f5a23dea34f2fa40cb91d49162002654565b5060007fb9aa073911e1c5f8bd8c04c7214fb2acd89aeb4180f5a23dea34f2fa40cb91d581905560408051808201909152601981527f68747470733a2f2f636f6c6c656374696f6e31362e636f6d2f000000000000006020828101918252601090935260149092525162001ed2917fb9aa073911e1c5f8bd8c04c7214fb2acd89aeb4180f5a23dea34f2fa40cb91d69162002654565b50600f7fb9aa073911e1c5f8bd8c04c7214fb2acd89aeb4180f5a23dea34f2fa40cb91d75560007fb9aa073911e1c5f8bd8c04c7214fb2acd89aeb4180f5a23dea34f2fa40cb91d88190556111947fb9aa073911e1c5f8bd8c04c7214fb2acd89aeb4180f5a23dea34f2fa40cb91d9557f09a170f3d0086dae06bb29777773ac9b2ea063027c223214f7fd334306f76582805460ff1916905561012c7f09a170f3d0086dae06bb29777773ac9b2ea063027c223214f7fd334306f765835560408051808201909152601381527f4372656174697669747920536b696c6c65727a000000000000000000000000006020828101918252601190935260149092525162001fff917f09a170f3d0086dae06bb29777773ac9b2ea063027c223214f7fd334306f765849162002654565b5060007f09a170f3d0086dae06bb29777773ac9b2ea063027c223214f7fd334306f7658581905560408051808201909152601981527f68747470733a2f2f636f6c6c656374696f6e31372e636f6d2f000000000000006020828101918252601190935260149092525162002095917f09a170f3d0086dae06bb29777773ac9b2ea063027c223214f7fd334306f765869162002654565b50600f7f09a170f3d0086dae06bb29777773ac9b2ea063027c223214f7fd334306f765875560007f09a170f3d0086dae06bb29777773ac9b2ea063027c223214f7fd334306f765888190556112c07f09a170f3d0086dae06bb29777773ac9b2ea063027c223214f7fd334306f76589557f07fc9f99a348f1ce3967b1918510f209dc4ad0ea6c703ec65ccdd193fba04e30805460ff1916905561012c7f07fc9f99a348f1ce3967b1918510f209dc4ad0ea6c703ec65ccdd193fba04e31556040805180820190915260148082527f5465616d20506c6179657220536b696c6c65727a00000000000000000000000060208381019182526012909452925251620021c0917f07fc9f99a348f1ce3967b1918510f209dc4ad0ea6c703ec65ccdd193fba04e329162002654565b5060007f07fc9f99a348f1ce3967b1918510f209dc4ad0ea6c703ec65ccdd193fba04e3381905560408051808201909152601981527f68747470733a2f2f636f6c6c656374696f6e31382e636f6d2f000000000000006020828101918252601290935260149092525162002256917f07fc9f99a348f1ce3967b1918510f209dc4ad0ea6c703ec65ccdd193fba04e349162002654565b50600f7f07fc9f99a348f1ce3967b1918510f209dc4ad0ea6c703ec65ccdd193fba04e355560007f07fc9f99a348f1ce3967b1918510f209dc4ad0ea6c703ec65ccdd193fba04e368190556113ec7f07fc9f99a348f1ce3967b1918510f209dc4ad0ea6c703ec65ccdd193fba04e37557f9d65b2ac638bfdb1cdd2019bc3f18ae2e26430f483705fbd511f5505697829d9805460ff1916905561012c7f9d65b2ac638bfdb1cdd2019bc3f18ae2e26430f483705fbd511f5505697829da5560408051808201909152601581527f53656c66205374617274657220536b696c6c65727a00000000000000000000006020828101918252601390935260149092525162002383917f9d65b2ac638bfdb1cdd2019bc3f18ae2e26430f483705fbd511f5505697829db9162002654565b5060007f9d65b2ac638bfdb1cdd2019bc3f18ae2e26430f483705fbd511f5505697829dc81905560408051808201909152601981527f68747470733a2f2f636f6c6c656374696f6e31392e636f6d2f000000000000006020828101918252601390935260149092525162002419917f9d65b2ac638bfdb1cdd2019bc3f18ae2e26430f483705fbd511f5505697829dd9162002654565b50600f7f9d65b2ac638bfdb1cdd2019bc3f18ae2e26430f483705fbd511f5505697829de5560007f9d65b2ac638bfdb1cdd2019bc3f18ae2e26430f483705fbd511f5505697829df8190556115187f9d65b2ac638bfdb1cdd2019bc3f18ae2e26430f483705fbd511f5505697829e0557fa3c034a0398f2cd3465cee88fec2489b78fe26933af4d394d6c87fc4cf00fa77805460ff1916905561012c7fa3c034a0398f2cd3465cee88fec2489b78fe26933af4d394d6c87fc4cf00fa78556040805180820190915260148082527f466c65786962696c69747920536b696c6c65727a00000000000000000000000060208381019182529382905292525162002543917fa3c034a0398f2cd3465cee88fec2489b78fe26933af4d394d6c87fc4cf00fa799162002654565b5060007fa3c034a0398f2cd3465cee88fec2489b78fe26933af4d394d6c87fc4cf00fa7a81905560408051808201909152601981527f68747470733a2f2f636f6c6c656374696f6e32302e636f6d2f0000000000000060208281019182526014938490529290925251620025d9917fa3c034a0398f2cd3465cee88fec2489b78fe26933af4d394d6c87fc4cf00fa7b9162002654565b5060146000818152602091909152600f7fa3c034a0398f2cd3465cee88fec2489b78fe26933af4d394d6c87fc4cf00fa7c557fa3c034a0398f2cd3465cee88fec2489b78fe26933af4d394d6c87fc4cf00fa7d556116447fa3c034a0398f2cd3465cee88fec2489b78fe26933af4d394d6c87fc4cf00fa7e55565b8280546200266290620027d6565b90600052602060002090601f016020900481019282620026865760008555620026d1565b82601f10620026a157805160ff1916838001178555620026d1565b82800160010185558215620026d1579182015b82811115620026d1578251825591602001919060010190620026b4565b50620026df929150620026e3565b5090565b5b80821115620026df5760008155600101620026e4565b600060208083850312156200270e57600080fd5b82516001600160401b03808211156200272657600080fd5b818501915085601f8301126200273b57600080fd5b81518181111562002750576200275062002813565b604051601f8201601f19908116603f011681019083821181831017156200277b576200277b62002813565b8160405282815288868487010111156200279457600080fd5b600093505b82841015620027b8578484018601518185018701529285019262002799565b82841115620027ca5760008684830101525b98975050505050505050565b600181811c90821680620027eb57607f821691505b602082108114156200280d57634e487b7160e01b600052602260045260246000fd5b50919050565b634e487b7160e01b600052604160045260246000fd5b61384480620028396000396000f3fe6080604052600436106103195760003560e01c80637d070260116101ab578063c6682862116100f7578063e8a3d48511610095578063f0a437141161006f578063f0a4371414610938578063f25f36871461094e578063f2fde38b1461096e578063fc1a1c361461098e57600080fd5b8063e8a3d485146108ba578063e985e9c5146108cf578063ec46a10c1461091857600080fd5b8063d5abeb01116100d1578063d5abeb011461084f578063d8a7921514610865578063da3ef23f1461087a578063deb4786e1461089a57600080fd5b8063c668286214610804578063c87b56dd14610819578063d082e3811461083957600080fd5b8063938e3d7b11610164578063a02956441161013e578063a029564414610784578063a22cb465146107a4578063a5875a28146107c4578063b88d4fde146107e457600080fd5b8063938e3d7b1461071f57806395d89b411461073f5780639b19251a1461075457600080fd5b80637d070260146106565780637f00c7a61461067657806383a670ed14610696578063846bd6ac146106ab5780638cfd4a5f146106e15780638da5cb5b1461070157600080fd5b80633af32abf1161026a57806357a605e0116102235780636352211e116101fd5780636352211e146105e1578063663f85491461060157806370a0823114610621578063715018a61461064157600080fd5b806357a605e01461059f5780635a9d10a2146105b45780635c975abb146105c757600080fd5b80633af32abf146104bd5780633ccfd60b146104f657806342842e0e146104fe578063477186421461051e5780634bae09a21461054b5780634f6ccce71461057f57600080fd5b806318160ddd116102d75780632f745c59116102b15780632f745c591461045e578063343365f61461047e57806335db70b51461049457806336e029c9146104aa57600080fd5b806318160ddd14610409578063239c70ae1461042857806323b872dd1461043e57600080fd5b80629f25ff1461031e57806301ffc9a71461034057806302ce58131461037557806306fdde031461038f578063081812fc146103b1578063095ea7b3146103e9575b600080fd5b34801561032a57600080fd5b5061033e6103393660046131bf565b6109a4565b005b34801561034c57600080fd5b5061036061035b366004613150565b610a01565b60405190151581526020015b60405180910390f35b34801561038157600080fd5b506015546103609060ff1681565b34801561039b57600080fd5b506103a4610a2c565b60405161036c9190613407565b3480156103bd57600080fd5b506103d16103cc3660046131f5565b610abe565b6040516001600160a01b03909116815260200161036c565b3480156103f557600080fd5b5061033e610404366004613079565b610b53565b34801561041557600080fd5b506008545b60405190815260200161036c565b34801561043457600080fd5b5061041a60125481565b34801561044a57600080fd5b5061033e610459366004612f85565b610c64565b34801561046a57600080fd5b5061041a610479366004613079565b610c95565b34801561048a57600080fd5b5061041a60165481565b3480156104a057600080fd5b5061041a60105481565b61033e6104b83660046130a3565b610d2b565b3480156104c957600080fd5b506103606104d8366004612f37565b6001600160a01b031660009081526018602052604090205460ff1690565b61033e611118565b34801561050a57600080fd5b5061033e610519366004612f85565b611168565b34801561052a57600080fd5b5061053e610539366004612f37565b611183565b60405161036c9190613366565b34801561055757600080fd5b5061056b6105663660046131f5565b611225565b60405161036c9897969594939291906133aa565b34801561058b57600080fd5b5061041a61059a3660046131f5565b61137a565b3480156105ab57600080fd5b506103a461140d565b61033e6105c23660046130a3565b61149b565b3480156105d357600080fd5b50600f546103609060ff1681565b3480156105ed57600080fd5b506103d16105fc3660046131f5565b611745565b34801561060d57600080fd5b5061033e61061c3660046130a3565b6117bc565b34801561062d57600080fd5b5061041a61063c366004612f37565b6119c7565b34801561064d57600080fd5b5061033e611a4e565b34801561066257600080fd5b5061033e6106713660046131f5565b611a82565b34801561068257600080fd5b5061033e6106913660046131f5565b611ab1565b3480156106a257600080fd5b5061033e611ae0565b3480156106b757600080fd5b5061041a6106c6366004612f37565b6001600160a01b031660009081526019602052604090205490565b3480156106ed57600080fd5b5061033e6106fc3660046131f5565b611b30565b34801561070d57600080fd5b50600a546001600160a01b03166103d1565b34801561072b57600080fd5b5061033e61073a36600461318a565b611ba6565b34801561074b57600080fd5b506103a4611be7565b34801561076057600080fd5b5061036061076f366004612f37565b60186020526000908152604090205460ff1681565b34801561079057600080fd5b5061033e61079f3660046131f5565b611bf6565b3480156107b057600080fd5b5061033e6107bf36600461303d565b611c25565b3480156107d057600080fd5b5061033e6107df36600461310b565b611c30565b3480156107f057600080fd5b5061033e6107ff366004612fc1565b611c9d565b34801561081057600080fd5b506103a4611ccf565b34801561082557600080fd5b506103a46108343660046131f5565b611cdc565b34801561084557600080fd5b5061041a600c5481565b34801561085b57600080fd5b5061041a60135481565b34801561087157600080fd5b5061033e611dac565b34801561088657600080fd5b5061033e61089536600461318a565b611dfc565b3480156108a657600080fd5b5061041a6108b53660046130d6565b611e39565b3480156108c657600080fd5b506103a4611f3e565b3480156108db57600080fd5b506103606108ea366004612f52565b6001600160a01b03918216600090815260056020908152604080832093909416825291909152205460ff1690565b34801561092457600080fd5b5061033e61093336600461320e565b611f4b565b34801561094457600080fd5b5061041a60175481565b34801561095a57600080fd5b5061033e6109693660046131f5565b6120a0565b34801561097a57600080fd5b5061033e610989366004612f37565b6120cf565b34801561099a57600080fd5b5061041a60115481565b600a546001600160a01b031633146109d75760405162461bcd60e51b81526004016109ce906135db565b60405180910390fd5b600081815260146020908152604090912083516109fc92600490920191850190612d7b565b505050565b60006001600160e01b0319821663780e9d6360e01b1480610a265750610a2682612167565b92915050565b606060008054610a3b90613720565b80601f0160208091040260200160405190810160405280929190818152602001828054610a6790613720565b8015610ab45780601f10610a8957610100808354040283529160200191610ab4565b820191906000526020600020905b815481529060010190602001808311610a9757829003601f168201915b5050505050905090565b6000818152600260205260408120546001600160a01b0316610b375760405162461bcd60e51b815260206004820152602c60248201527f4552433732313a20617070726f76656420717565727920666f72206e6f6e657860448201526b34b9ba32b73a103a37b5b2b760a11b60648201526084016109ce565b506000908152600460205260409020546001600160a01b031690565b6000610b5e82611745565b9050806001600160a01b0316836001600160a01b03161415610bcc5760405162461bcd60e51b815260206004820152602160248201527f4552433732313a20617070726f76616c20746f2063757272656e74206f776e656044820152603960f91b60648201526084016109ce565b336001600160a01b0382161480610be85750610be881336108ea565b610c5a5760405162461bcd60e51b815260206004820152603860248201527f4552433732313a20617070726f76652063616c6c6572206973206e6f74206f7760448201527f6e6572206e6f7220617070726f76656420666f7220616c6c000000000000000060648201526084016109ce565b6109fc83836121b7565b610c6e3382612225565b610c8a5760405162461bcd60e51b81526004016109ce90613610565b6109fc83838361231c565b6000610ca0836119c7565b8210610d025760405162461bcd60e51b815260206004820152602b60248201527f455243373231456e756d657261626c653a206f776e657220696e646578206f7560448201526a74206f6620626f756e647360a81b60648201526084016109ce565b506001600160a01b03919091166000908152600660209081526040808320938352929052205490565b600f5460ff1615610d745760405162461bcd60e51b8152602060048201526013602482015272436f6e7472616374206973207061757365642160681b60448201526064016109ce565b60155460ff161515600114610dcb5760405162461bcd60e51b815260206004820181905260248201527f57686974656c697374206d696e74696e67206e6f74206163746976617465642160448201526064016109ce565b60008181526014602052604090205460ff161515600114610dfe5760405162461bcd60e51b81526004016109ce9061341a565b60135482600c54610e0f9190613692565b1115610e2d5760405162461bcd60e51b81526004016109ce906134fd565b60008211610e4d5760405162461bcd60e51b81526004016109ce906134bc565b601254821115610e6f5760405162461bcd60e51b81526004016109ce9061358b565b600081815260146020526040902060018101546006820154600583015460039093015491929091610ea1908690613692565b610eab9190613692565b610eb591906136dd565b1115610ed35760405162461bcd60e51b81526004016109ce90613540565b3360009081526018602052604090205460ff16610f325760405162461bcd60e51b815260206004820152601860248201527f596f7520617265206e6f742077686974656c697374656421000000000000000060448201526064016109ce565b816016541015610f985760405162461bcd60e51b815260206004820152602b60248201527f4f6e6c792033206d696e74732061726520616c6c6f77656420666f722077686960448201526a746c69737420757365727360a81b60648201526084016109ce565b60165433600090815260196020526040902054610fb59084613692565b11156110035760405162461bcd60e51b815260206004820152601f60248201527f596f752065786365656420796f75722077686974656c697374206c696d69740060448201526064016109ce565b8160115461101191906136be565b34101561105b5760405162461bcd60e51b8152602060048201526018602482015277416d6f756e74206f662045544820697320746f206c65737360401b60448201526064016109ce565b60015b82811161111257600c80549060006110758361375b565b909155505033600090815260196020526040812080546001929061109a908490613692565b909155505060008281526014602052604081206003018054916110bc8361375b565b909155505060008281526014602052604081206007018054916110de8361375b565b90915550506000828152601460205260409020600701546111009085906124c7565b8061110a8161375b565b91505061105e565b50505050565b600a546001600160a01b031633146111425760405162461bcd60e51b81526004016109ce906135db565b60405133904780156108fc02916000818181858888f1935050505061116657600080fd5b565b6109fc83838360405180602001604052806000815250611c9d565b60606000611190836119c7565b905060008167ffffffffffffffff8111156111ad576111ad6137e2565b6040519080825280602002602001820160405280156111d6578160200160208202803683370190505b50905060005b8281101561121d576111ee8582610c95565b828281518110611200576112006137cc565b6020908102919091010152806112158161375b565b9150506111dc565b509392505050565b60146020526000908152604090208054600182015460028301805460ff90931693919261125190613720565b80601f016020809104026020016040519081016040528092919081815260200182805461127d90613720565b80156112ca5780601f1061129f576101008083540402835291602001916112ca565b820191906000526020600020905b8154815290600101906020018083116112ad57829003601f168201915b5050505050908060030154908060040180546112e590613720565b80601f016020809104026020016040519081016040528092919081815260200182805461131190613720565b801561135e5780601f106113335761010080835404028352916020019161135e565b820191906000526020600020905b81548152906001019060200180831161134157829003601f168201915b5050505050908060050154908060060154908060070154905088565b600061138560085490565b82106113e85760405162461bcd60e51b815260206004820152602c60248201527f455243373231456e756d657261626c653a20676c6f62616c20696e646578206f60448201526b7574206f6620626f756e647360a01b60648201526084016109ce565b600882815481106113fb576113fb6137cc565b90600052602060002001549050919050565b600d805461141a90613720565b80601f016020809104026020016040519081016040528092919081815260200182805461144690613720565b80156114935780601f1061146857610100808354040283529160200191611493565b820191906000526020600020905b81548152906001019060200180831161147657829003601f168201915b505050505081565b600f5460ff16156114e45760405162461bcd60e51b8152602060048201526013602482015272436f6e7472616374206973207061757365642160681b60448201526064016109ce565b60155460ff16156115415760405162461bcd60e51b815260206004820152602160248201527f4f6e6c792057686974656c697374206d696e74696e6720697320616c6c6f77656044820152601960fa1b60648201526084016109ce565b60008181526014602052604090205460ff1615156001146115745760405162461bcd60e51b81526004016109ce9061341a565b60135482600c546115859190613692565b11156115a35760405162461bcd60e51b81526004016109ce906134fd565b600082116115c35760405162461bcd60e51b81526004016109ce906134bc565b6012548211156115e55760405162461bcd60e51b81526004016109ce9061358b565b600081815260146020526040902060018101546006820154600583015460039093015491929091611617908690613692565b6116219190613692565b61162b91906136dd565b11156116495760405162461bcd60e51b81526004016109ce90613540565b600a546001600160a01b031633146116b3578160105461166991906136be565b3410156116b35760405162461bcd60e51b8152602060048201526018602482015277416d6f756e74206f662045544820697320746f206c65737360401b60448201526064016109ce565b60015b82811161111257600c80549060006116cd8361375b565b909155505060008281526014602052604081206003018054916116ef8361375b565b909155505060008281526014602052604081206007018054916117118361375b565b90915550506000828152601460205260409020600701546117339085906124c7565b8061173d8161375b565b9150506116b6565b6000818152600260205260408120546001600160a01b031680610a265760405162461bcd60e51b815260206004820152602960248201527f4552433732313a206f776e657220717565727920666f72206e6f6e657869737460448201526832b73a103a37b5b2b760b91b60648201526084016109ce565b600a546001600160a01b031633146117e65760405162461bcd60e51b81526004016109ce906135db565b600082116118065760405162461bcd60e51b81526004016109ce906134bc565b60008181526014602052604090205460ff1615156001146118395760405162461bcd60e51b81526004016109ce9061341a565b6000818152601460205260409020600581015460069091015461185d908490613692565b111561187b5760405162461bcd60e51b81526004016109ce9061341a565b6000818152601460205260409020600181015460079091015461189f908490613692565b11156119135760405162461bcd60e51b815260206004820152603760248201527f4d6178696d756d206f6620617661696c61626c65204e46547320696e2074686960448201527f7320636f6c6c656374696f6e206973207265616368656400000000000000000060648201526084016109ce565b60015b82811161111257600c805490600061192d8361375b565b9091555050600082815260146020526040812060060180549161194f8361375b565b909155505060008281526014602052604081206003018054916119718361375b565b909155505060008281526014602052604081206007018054916119938361375b565b90915550506000828152601460205260409020600701546119b59085906124c7565b806119bf8161375b565b915050611916565b60006001600160a01b038216611a325760405162461bcd60e51b815260206004820152602a60248201527f4552433732313a2062616c616e636520717565727920666f7220746865207a65604482015269726f206164647265737360b01b60648201526084016109ce565b506001600160a01b031660009081526003602052604090205490565b600a546001600160a01b03163314611a785760405162461bcd60e51b81526004016109ce906135db565b61116660006124e1565b600a546001600160a01b03163314611aac5760405162461bcd60e51b81526004016109ce906135db565b601655565b600a546001600160a01b03163314611adb5760405162461bcd60e51b81526004016109ce906135db565b601255565b600a546001600160a01b03163314611b0a5760405162461bcd60e51b81526004016109ce906135db565b60155460ff1615611b21576015805460ff19169055565b6015805460ff19166001179055565b600a546001600160a01b03163314611b5a5760405162461bcd60e51b81526004016109ce906135db565b60008181526014602052604090205460ff1615611b89576000908152601460205260409020805460ff19169055565b6000818152601460205260409020805460ff191660011790555b50565b600a546001600160a01b03163314611bd05760405162461bcd60e51b81526004016109ce906135db565b8051611be390600e906020840190612d7b565b5050565b606060018054610a3b90613720565b600a546001600160a01b03163314611c205760405162461bcd60e51b81526004016109ce906135db565b601155565b611be3338383612533565b600a546001600160a01b03163314611c5a5760405162461bcd60e51b81526004016109ce906135db565b60005b82518110156109fc57611c8b838281518110611c7b57611c7b6137cc565b602002602001015160018461149b565b80611c958161375b565b915050611c5d565b611ca73383612225565b611cc35760405162461bcd60e51b81526004016109ce90613610565b61111284848484612602565b600b805461141a90613720565b6000818152600260205260409020546060906001600160a01b0316611d5b5760405162461bcd60e51b815260206004820152602f60248201527f4552433732314d657461646174613a2055524920717565727920666f72206e6f60448201526e3732bc34b9ba32b73a103a37b5b2b760891b60648201526084016109ce565b60146000611d6884612635565b8152602001908152602001600020600401611d82836127a7565b600b604051602001611d96939291906132f6565b6040516020818303038152906040529050919050565b600a546001600160a01b03163314611dd65760405162461bcd60e51b81526004016109ce906135db565b600f5460ff1615611ded57600f805460ff19169055565b600f805460ff19166001179055565b600a546001600160a01b03163314611e265760405162461bcd60e51b81526004016109ce906135db565b8051611be390600b906020840190612d7b565b600a546000906001600160a01b03163314611e665760405162461bcd60e51b81526004016109ce906135db565b6000805b8351811015611f355760186000858381518110611e8957611e896137cc565b6020908102919091018101516001600160a01b031682528101919091526040016000205460ff16611f2357600160186000868481518110611ecc57611ecc6137cc565b6020908102919091018101516001600160a01b031682528101919091526040016000908120805460ff1916921515929092179091556017805491611f0f8361375b565b91905055508180611f1f9061375b565b9250505b80611f2d8161375b565b915050611e6a565b5090505b919050565b600e805461141a90613720565b600a546001600160a01b03163314611f755760405162461bcd60e51b81526004016109ce906135db565b60008181526014602052604090206003810154600190910154611f9891906136dd565b8211156120035760405162461bcd60e51b815260206004820152603360248201527f5265736572766564206d75737420626520736d616c6c6572207468616e20746f6044820152723a30b639bab838363c90169031b7bab73a32b960691b60648201526084016109ce565b60008181526014602052604090206006015482101561208c576040805162461bcd60e51b81526020600482015260248101919091527f4e6577207265736572766564206d757374206265206c6172676572206f72206560448201527f7175616c2074686520616c7265616479207265736572766564206d696e74656460648201526084016109ce565b600090815260146020526040902060050155565b600a546001600160a01b031633146120ca5760405162461bcd60e51b81526004016109ce906135db565b601055565b600a546001600160a01b031633146120f95760405162461bcd60e51b81526004016109ce906135db565b6001600160a01b03811661215e5760405162461bcd60e51b815260206004820152602660248201527f4f776e61626c653a206e6577206f776e657220697320746865207a65726f206160448201526564647265737360d01b60648201526084016109ce565b611ba3816124e1565b60006001600160e01b031982166380ac58cd60e01b148061219857506001600160e01b03198216635b5e139f60e01b145b80610a2657506301ffc9a760e01b6001600160e01b0319831614610a26565b600081815260046020526040902080546001600160a01b0319166001600160a01b03841690811790915581906121ec82611745565b6001600160a01b03167f8c5be1e5ebec7d5bd14f71427d1e84f3dd0314c0f7b2291e5b200ac8c7c3b92560405160405180910390a45050565b6000818152600260205260408120546001600160a01b031661229e5760405162461bcd60e51b815260206004820152602c60248201527f4552433732313a206f70657261746f7220717565727920666f72206e6f6e657860448201526b34b9ba32b73a103a37b5b2b760a11b60648201526084016109ce565b60006122a983611745565b9050806001600160a01b0316846001600160a01b031614806122e45750836001600160a01b03166122d984610abe565b6001600160a01b0316145b8061231457506001600160a01b0380821660009081526005602090815260408083209388168352929052205460ff165b949350505050565b826001600160a01b031661232f82611745565b6001600160a01b0316146123975760405162461bcd60e51b815260206004820152602960248201527f4552433732313a207472616e73666572206f6620746f6b656e2074686174206960448201526839903737ba1037bbb760b91b60648201526084016109ce565b6001600160a01b0382166123f95760405162461bcd60e51b8152602060048201526024808201527f4552433732313a207472616e7366657220746f20746865207a65726f206164646044820152637265737360e01b60648201526084016109ce565b6124048383836128a5565b61240f6000826121b7565b6001600160a01b03831660009081526003602052604081208054600192906124389084906136dd565b90915550506001600160a01b0382166000908152600360205260408120805460019290612466908490613692565b909155505060008181526002602052604080822080546001600160a01b0319166001600160a01b0386811691821790925591518493918716917fddf252ad1be2c89b69c2b068fc378daa952ba7f163c4a11628f55a4df523b3ef91a4505050565b611be382826040518060200160405280600081525061295d565b600a80546001600160a01b038381166001600160a01b0319831681179093556040519116919082907f8be0079c531659141344cd1fd0a4f28419497f9722a3daafe3b4186f6b6457e090600090a35050565b816001600160a01b0316836001600160a01b031614156125955760405162461bcd60e51b815260206004820152601960248201527f4552433732313a20617070726f766520746f2063616c6c65720000000000000060448201526064016109ce565b6001600160a01b03838116600081815260056020908152604080832094871680845294825291829020805460ff191686151590811790915591519182527f17307eab39ab6107e8899845ad3d59bd9653f200f220920489ca2b5937696c31910160405180910390a3505050565b61260d84848461231c565b61261984848484612990565b6111125760405162461bcd60e51b81526004016109ce9061346a565b600061012d82101561264957506001919050565b61025982101561265b57506002919050565b61038582101561266d57506003919050565b6104b182101561267f57506004919050565b6105dd82101561269157506005919050565b6107098210156126a357506006919050565b6108358210156126b557506007919050565b6109618210156126c757506008919050565b610a8d8210156126d957506009919050565b610bb98210156126eb5750600a919050565b610ce58210156126fd5750600b919050565b610e1182101561270f5750600c919050565b610f3d8210156127215750600d919050565b6110698210156127335750600e919050565b6111958210156127455750600f919050565b6112c182101561275757506010919050565b6113ed82101561276957506011919050565b61151982101561277b57506012919050565b61164582101561278d57506013919050565b61177182101561279f57506014919050565b506000919050565b6060816127cb5750506040805180820190915260018152600360fc1b602082015290565b8160005b81156127f557806127df8161375b565b91506127ee9050600a836136aa565b91506127cf565b60008167ffffffffffffffff811115612810576128106137e2565b6040519080825280601f01601f19166020018201604052801561283a576020820181803683370190505b5090505b84156123145761284f6001836136dd565b915061285c600a86613776565b612867906030613692565b60f81b81838151811061287c5761287c6137cc565b60200101906001600160f81b031916908160001a90535061289e600a866136aa565b945061283e565b6001600160a01b038316612900576128fb81600880546000838152600960205260408120829055600182018355919091527ff3f7a9fe364faab93b216da50a3214154f22a0a2b415b23a84c8169e8b636ee30155565b612923565b816001600160a01b0316836001600160a01b031614612923576129238382612a9d565b6001600160a01b03821661293a576109fc81612b3a565b826001600160a01b0316826001600160a01b0316146109fc576109fc8282612be9565b6129678383612c2d565b6129746000848484612990565b6109fc5760405162461bcd60e51b81526004016109ce9061346a565b60006001600160a01b0384163b15612a9257604051630a85bd0160e11b81526001600160a01b0385169063150b7a02906129d4903390899088908890600401613329565b602060405180830381600087803b1580156129ee57600080fd5b505af1925050508015612a1e575060408051601f3d908101601f19168201909252612a1b9181019061316d565b60015b612a78573d808015612a4c576040519150601f19603f3d011682016040523d82523d6000602084013e612a51565b606091505b508051612a705760405162461bcd60e51b81526004016109ce9061346a565b805181602001fd5b6001600160e01b031916630a85bd0160e11b149050612314565b506001949350505050565b60006001612aaa846119c7565b612ab491906136dd565b600083815260076020526040902054909150808214612b07576001600160a01b03841660009081526006602090815260408083208584528252808320548484528184208190558352600790915290208190555b5060009182526007602090815260408084208490556001600160a01b039094168352600681528383209183525290812055565b600854600090612b4c906001906136dd565b60008381526009602052604081205460088054939450909284908110612b7457612b746137cc565b906000526020600020015490508060088381548110612b9557612b956137cc565b6000918252602080832090910192909255828152600990915260408082208490558582528120556008805480612bcd57612bcd6137b6565b6001900381819060005260206000200160009055905550505050565b6000612bf4836119c7565b6001600160a01b039093166000908152600660209081526040808320868452825280832085905593825260079052919091209190915550565b6001600160a01b038216612c835760405162461bcd60e51b815260206004820181905260248201527f4552433732313a206d696e7420746f20746865207a65726f206164647265737360448201526064016109ce565b6000818152600260205260409020546001600160a01b031615612ce85760405162461bcd60e51b815260206004820152601c60248201527f4552433732313a20746f6b656e20616c7265616479206d696e7465640000000060448201526064016109ce565b612cf4600083836128a5565b6001600160a01b0382166000908152600360205260408120805460019290612d1d908490613692565b909155505060008181526002602052604080822080546001600160a01b0319166001600160a01b03861690811790915590518392907fddf252ad1be2c89b69c2b068fc378daa952ba7f163c4a11628f55a4df523b3ef908290a45050565b828054612d8790613720565b90600052602060002090601f016020900481019282612da95760008555612def565b82601f10612dc257805160ff1916838001178555612def565b82800160010185558215612def579182015b82811115612def578251825591602001919060010190612dd4565b50612dfb929150612dff565b5090565b5b80821115612dfb5760008155600101612e00565b600067ffffffffffffffff831115612e2e57612e2e6137e2565b612e41601f8401601f1916602001613661565b9050828152838383011115612e5557600080fd5b828260208301376000602084830101529392505050565b80356001600160a01b0381168114611f3957600080fd5b600082601f830112612e9457600080fd5b8135602067ffffffffffffffff821115612eb057612eb06137e2565b8160051b612ebf828201613661565b838152828101908684018388018501891015612eda57600080fd5b600093505b85841015612f0457612ef081612e6c565b835260019390930192918401918401612edf565b50979650505050505050565b600082601f830112612f2157600080fd5b612f3083833560208501612e14565b9392505050565b600060208284031215612f4957600080fd5b612f3082612e6c565b60008060408385031215612f6557600080fd5b612f6e83612e6c565b9150612f7c60208401612e6c565b90509250929050565b600080600060608486031215612f9a57600080fd5b612fa384612e6c565b9250612fb160208501612e6c565b9150604084013590509250925092565b60008060008060808587031215612fd757600080fd5b612fe085612e6c565b9350612fee60208601612e6c565b925060408501359150606085013567ffffffffffffffff81111561301157600080fd5b8501601f8101871361302257600080fd5b61303187823560208401612e14565b91505092959194509250565b6000806040838503121561305057600080fd5b61305983612e6c565b91506020830135801515811461306e57600080fd5b809150509250929050565b6000806040838503121561308c57600080fd5b61309583612e6c565b946020939093013593505050565b6000806000606084860312156130b857600080fd5b6130c184612e6c565b95602085013595506040909401359392505050565b6000602082840312156130e857600080fd5b813567ffffffffffffffff8111156130ff57600080fd5b61231484828501612e83565b6000806040838503121561311e57600080fd5b823567ffffffffffffffff81111561313557600080fd5b61314185828601612e83565b95602094909401359450505050565b60006020828403121561316257600080fd5b8135612f30816137f8565b60006020828403121561317f57600080fd5b8151612f30816137f8565b60006020828403121561319c57600080fd5b813567ffffffffffffffff8111156131b357600080fd5b61231484828501612f10565b600080604083850312156131d257600080fd5b823567ffffffffffffffff8111156131e957600080fd5b61314185828601612f10565b60006020828403121561320757600080fd5b5035919050565b6000806040838503121561322157600080fd5b50508035926020909101359150565b600081518084526132488160208601602086016136f4565b601f01601f19169290920160200192915050565b8054600090600181811c908083168061327657607f831692505b602080841082141561329857634e487b7160e01b600052602260045260246000fd5b8180156132ac57600181146132bd576132ea565b60ff198616895284890196506132ea565b60008881526020902060005b868110156132e25781548b8201529085019083016132c9565b505084890196505b50505050505092915050565b6000613302828661325c565b84516133128183602089016136f4565b61331e8183018661325c565b979650505050505050565b6001600160a01b038581168252841660208201526040810183905260806060820181905260009061335c90830184613230565b9695505050505050565b6020808252825182820181905260009190848201906040850190845b8181101561339e57835183529284019291840191600101613382565b50909695505050505050565b60006101008a151583528960208401528060408401526133cc8184018a613230565b905087606084015282810360808401526133e68188613230565b60a0840196909652505060c081019290925260e09091015295945050505050565b602081526000612f306020830184613230565b60208082526030908201527f4d696e74696e67206f66206d696e7461626c6520636f6c6c656374696f6e206960408201526f1cc81b9bdd081858dd1a5d99481e595d60821b606082015260800190565b60208082526032908201527f4552433732313a207472616e7366657220746f206e6f6e20455243373231526560408201527131b2b4bb32b91034b6b83632b6b2b73a32b960711b606082015260800190565b60208082526021908201527f4174206c65617374206f6e6520746f6b656e206d757374206265206d696e74656040820152601960fa1b606082015260800190565b60208082526023908201527f4d6178696d756d206f6620706f737369626c65204e46547320697320726561636040820152621a195960ea1b606082015260800190565b6020808252602b908201527f4d6178696d756d20537570706c79206f662074686520636f6c6c656374696f6e60408201526a081a5cc81c995858da195960aa1b606082015260800190565b60208082526030908201527f45786365656473206d6178696d616c20706f737369626c6520746f6b656e732060408201526f746f206d696e74206f6e20612074727960801b606082015260800190565b6020808252818101527f4f776e61626c653a2063616c6c6572206973206e6f7420746865206f776e6572604082015260600190565b60208082526031908201527f4552433732313a207472616e736665722063616c6c6572206973206e6f74206f6040820152701ddb995c881b9bdc88185c1c1c9bdd9959607a1b606082015260800190565b604051601f8201601f1916810167ffffffffffffffff8111828210171561368a5761368a6137e2565b604052919050565b600082198211156136a5576136a561378a565b500190565b6000826136b9576136b96137a0565b500490565b60008160001904831182151516156136d8576136d861378a565b500290565b6000828210156136ef576136ef61378a565b500390565b60005b8381101561370f5781810151838201526020016136f7565b838111156111125750506000910152565b600181811c9082168061373457607f821691505b6020821081141561375557634e487b7160e01b600052602260045260246000fd5b50919050565b600060001982141561376f5761376f61378a565b5060010190565b600082613785576137856137a0565b500690565b634e487b7160e01b600052601160045260246000fd5b634e487b7160e01b600052601260045260246000fd5b634e487b7160e01b600052603160045260246000fd5b634e487b7160e01b600052603260045260246000fd5b634e487b7160e01b600052604160045260246000fd5b6001600160e01b031981168114611ba357600080fdfea2646970667358221220efa56c44dc17d3a127fb589fb9868f581c903ff7258d4cdf578fc904b682fa1264736f6c63430008070033",
  "linkReferences": {},
  "deployedLinkReferences": {}
}